:1000000019C03DC03CC01CC13AC039C038C037C05F
:1000100036C035C034C033C032C031C030C0E5C393
:10002000EEC3F7C300C409C40DC416C49AC415C5F1
:100030009107970711241FBECFE5D2E0DEBFCDBFE9
:1000400010E0A0E6B0E0E8E9F3E102C005900D920F
:10005000AE36B107D9F710E0AEE6B0E001C01D92B0
:10006000AB3AB107E1F710E0C2E3D0E003C022975A
:10007000FE0182D9C033D107D1F7BAD581C9C0CF2B
:10008000853078F4E82FF0E0EE0FFF1FEE0FFF1F32
:10009000DF01AD58BF4F1C92EF58FF4F138280E82D
:1000A000808308958530B8F4E82FF0E0EE0FFF1F4D
:1000B000EE0FFF1FEF58FF4F8381882361F023E08D
:1000C000769567952A95E1F7605470406F3F71050A
:1000D00009F008F4608308958530B0F4E82FF0E06B
:1000E000EE0FFF1FEE0FFF1FEF58FF4F8381882396
:1000F00059F08081282F30E0285F3F4F43E0220FE6
:10010000331F4A95E1F702C020E030E0C9010895AD
:10011000853058F4E82FF0E0EE0FFF1FEE0FFF1FC1
:10012000EF58FF4F83818111618308958530A0F4DA
:10013000A82FB0E0FD01EE0FFF1FEE0FFF1FEF58DD
:10014000FF4F8381882341F0AA0FBB1FAA0FBB1F5B
:10015000AD58BF4F8C91089580E0089510BE80B7D0
:10016000877F80BF80B7846080BF80B7826080BF98
:1001700080B7816080BF0895F1DF89B7806489BF4F
:100180001FBC8FEF8EBD78940895CF93DF93853099
:1001900030F5C82FD0E0FE01EE0FFF1FEE0FFF1F5E
:1001A000EF58FF4F83818823D1F0662389F0809137
:1001B0006E00882321F4E0DF81E080936E00CC0F95
:1001C000DD1FCC0FDD1FCD58DF4F81E0888307C0D6
:1001D000CC0FDD1FCC0FDD1FCD58DF4F1882DF9114
:1001E000CF910895E1E7F0E080E8808311821282E8
:1001F0001382349690E0E538F907B9F781E08093EF
:100200006F00089580916F00882309F4EBDFA4E765
:10021000B0E0E0E0F0E09E2F8C91882349F4EE0FEF
:10022000FF1FEE0FFF1FEF58FF4F81E0838306C0D3
:1002300031961496E530F10571F79FEF892F0895F7
:100240001F920F920FB60F9211242F933F938F930B
:100250009F93EF93FF9380916000813009F451C028
:100260008130B8F1823009F49BC0833009F09EC020
:10027000809170008F5F8093700080917000853056
:1002800011F410927000E0917000F0E0EE0FFF1F8B
:10029000EE0FFF1FED58FF4F80818823A1F088B338
:1002A000E0917000F0E0EE0FFF1FEE0FFF1FEF5820
:1002B000FF4F21E030E0018002C0220F331F0A947B
:1002C000E2F7822B88BB1FBC8CE38EBD10926000CE
:1002D0006DC0E0917000F0E0EE0FFF1FEE0FFF1F0A
:1002E000EF58FF4F80818EBD81E0809360001FBC7E
:1002F0008EB5882319F48FEF8FBD58C080E188BF79
:1003000055C0E0917000F0E0EE0FFF1FEE0FFF1FF1
:10031000ED58FF4F80818823A9F028B3E091700049
:10032000F0E0EE0FFF1FEE0FFF1FEF58FF4F81E0D1
:1003300090E0018002C0880F991F0A94E2F780952F
:10034000822388BBE0917000F0E0EE0FFF1FEE0FFC
:10035000FF1FEF58FF4F808190E0803C910574F0C3
:1003600083E080936000E0917000F0E0EE0FFF1FEB
:10037000EE0FFF1FEF58FF4F80EC0DC082E080931F
:100380006000E0917000F0E0EE0FFF1FEE0FFF1F26
:10039000EF58FF4F8FEB9081891B8EBD1FBC06C0AD
:1003A00083E0809360001FBC8FEF8EBDFF91EF91C3
:1003B0009F918F913F912F910F900FBE0F901F90A3
:1003C00018950F931F938C01FC01818180838FEF1F
:1003D000818380E292E09383828380E699E0958333
:1003E000848310DFF80180831F910F9108950F938C
:1003F0001F938C01FC01818180838FEF818380E2D8
:1004000092E09383828380E699E095838483FADE89
:10041000F80180831F910F910895CF93DF93EC0132
:10042000E881E53070F4F0E0EE0FFF1FEE0FFF1FE4
:10043000DF01AD58BF4F1C92EF58FF4F138280E889
:10044000808389818883DF91CF910895CF93DF9353
:10045000EC01E881E53070F4F0E0EE0FFF1FEE0FE5
:10046000FF1FDF01AD58BF4F1C92EF58FF4F1382A3
:1004700080E8808389818883DF91CF9108951F93DD
:10048000CF93DF93EC01162F98818981981739F467
:10049000B9DE88839981891711F480E01FC0163076
:1004A000E0F427B381E090E0012E02C0880F991F8D
:1004B0000A94E2F7282B27BB8881853058F4E82F6F
:1004C000F0E0EE0FFF1FEE0FFF1FEF58FF4F83818D
:1004D00081111183888161E058DE8881DF91CF919D
:1004E0001F910895FC015383428335832483C7DF22
:1004F0000895CF93DF93EC01E881E53070F4F0E0EC
:10050000EE0FFF1FEE0FFF1FDF01AD58BF4F1C9214
:10051000EF58FF4F138280E8808389818883DF91C1
:10052000CF910895FC0190818181981711F0892F56
:10053000B9DD0895FC01908181819817B9F095305B
:10054000A8F4E92FF0E0EE0FFF1FEE0FFF1FEF58AA
:10055000FF4F8381882351F08081E82FF0E03896A7
:1005600093E0EE0FFF1F9A95E1F702C0E0E0F0E0A4
:10057000CF010895FC01908181819817B1F09530E9
:10058000A0F4A92FB0E0FD01EE0FFF1FEE0FFF1F3B
:10059000EF58FF4F8381882341F0AA0FBB1FAA0F9A
:1005A000BB1FAD58BF4F8C91089580E008954F92C6
:1005B0005F926F927F928F929F92AF92BF92CF92F3
:1005C000DF92EF92FF920F931F93DF93CF9300D0B0
:1005D00000D0CDB7DEB72A013B0109831A832B83F4
:1005E0003C836F89788D898D9A8D681979098A097C
:1005F0009B09401A510A620A730AA301920164D648
:1006000029813A814B815C81C21AD30AE40AF50A36
:10061000A701960172D6280D391D4A1D5B1DB9012F
:10062000CA010F900F900F900F90CF91DF911F9103
:100630000F91FF90EF90DF90CF90BF90AF909F9081
:100640008F907F906F905F904F9008958F929F92C0
:10065000AF92BF92CF92DF92EF92FF920F931F93D0
:10066000CF93DF93EC0198818981981719F460E0AA
:1006700070E022C0CE015EDF00D000D0AC0160E0AF
:1006800070E00A811B8120E030E0CC80DD80EE2428
:10069000FF2484EB90E0A0E0B0E0EDB7FEB78183EB
:1006A0009283A383B483CE018824992454017FDFED
:1006B0000F900F900F900F90CB01DF91CF911F9172
:1006C0000F91FF90EF90DF90CF90BF90AF909F90F1
:1006D0008F9008958F929F92AF92BF92CF92DF92A8
:1006E000EF92FF920F931F93CF93DF93EC019881CA
:1006F0008981981761F1653B710510F0CE0126C024
:1007000000D000D0AB0160E070E08A809B80AA241A
:10071000BB248C819D81A0E0B0E0EDB7FEB7818362
:100720009283A383B483CE0100E010E020E030E0A8
:10073000E4EBCE2ED12CE12CF12C39DF0F900F9071
:100740000F900F909B01AC01CE01B901EBDEDF9160
:10075000CF911F910F91FF90EF90DF90CF90BF90BE
:10076000AF909F908F9008958CE087B980EA9FE0CA
:100770000197F1F7369A3699FECF84B165B1362FDD
:1007800020E090E0282B392B442737FD4095542F4B
:1007900064EB7BE281E190E0B0D5CA01B901089534
:1007A000309168008639910558F428B381E090E0D3
:1007B00002C0880F991F3A95E2F7282B28BB0895AD
:1007C00028B381E090E002C0880F991F3A95E2F7C4
:1007D0008095822388BB0895E82FF0E0E930F10589
:1007E00008F045C1E15FFF4F09948FE990E06CED9F
:1007F00075E098DE85EA90E06CED75E02CC18FE93C
:1008000090E060EB74E08EDE85EA90E068E077E0EF
:1008100022C18FE990E068E077E084DE85EA90E02D
:1008200060EB74E018C18FE990E060E679E07ADE71
:1008300085EA90E068E572E00EC18FE990E068E536
:1008400072E004C08FE990E060E679E06BDE85EA53
:1008500090E060E679E0FFC08091610090E06AE09E
:1008600070E020D5BC01685A7D4F8FE990E05ADED8
:100870008091880090E06AE070E014D5BC01685A6D
:100880007D4F85EA90E04EDE80ED97E028EC30E089
:10089000F9013197F1F70197D9F78091610090E064
:1008A0006AE070E0FFD4BC01685A7D4F8FE990E0A8
:1008B00039DE8091610090E06AE070E0F3D4BC0121
:1008C000685A7D4F85EA90E02DDE80ED97E028ECB8
:1008D00030E0F9013197F1F70197D9F7809188005D
:1008E00090E06AE070E0DED4BC01685A7D4F8FE989
:1008F00090E018DE8091610090E06AE070E0D2D470
:10090000BC01685A7D4F85EA90E00CDE80ED97E0EF
:1009100028EC30E0F9013197F1F70197D9F7809190
:10092000880090E06AE070E0BDD4BC01685A7D4F59
:100930008FE990E0F7DD8091880090E06AE070E058
:10094000B1D4BC01685A7D4F85EA90E0EBDD80EDC3
:1009500097E028EC30E0F9013197F1F70197D9F7EA
:1009600063C08091610090E06AE070E09BD4BC01BC
:10097000685A7D4F8FE990E0D5DD8091620090E06C
:100980006AE070E08FD4BC01685A7D4F85EA90E040
:10099000C9DD80EA9FE028EC30E0F9013197F1F7FA
:1009A0000197D9F78091620090E06AE070E07AD414
:1009B000BC01685A7D4F8FE990E0B4DD8091620000
:1009C00090E06AE070E06ED4BC01685A7D4F85EA21
:1009D00090E0A8DD80EA9FE028EC30E0F901319753
:1009E000F1F70197D9F78091620090E06AE070E03A
:1009F00059D4BC01685A7D4F8FE990E093DD809116
:100A0000880090E06AE070E04DD4BC01685A7D4FE8
:100A100085EA90E087DD80EA9FE028EC30E0F9018C
:100A20003197F1F70197D9F78091610090E06AE082
:100A300070E038D4BC01685A7D4F8FE990E072DDD8
:100A40008091880090E06AE070E02CD4BC01685A84
:100A50007D4F85EA90E066DD08958FE990E060E6DD
:100A600079E060DD85EA90E068E572E05BDD08959D
:100A7000FC0180916700282F30E0E217F30730F087
:100A8000C901880F991FE817F90728F41092900000
:100A900010928F0039C0C90163E070E003D4E817F9
:100AA000F90718F482E090E02BC0C901880F991F64
:100AB000880F991FE817F90718F483E090E020C029
:100AC000C90165E070E0EED3E817F90718F484E097
:100AD00090E016C0C90166E070E0E4D3E817F907BA
:100AE00018F485E090E00CC0C90167E070E0DAD34B
:100AF000E817F90718F486E090E002C087E090E07C
:100B00009093900080938F0020918F0030919000FF
:100B100080918600909187002817390781F03093E3
:100B20008700209386001092850080ED97E028ECE6
:100B300030E0F9013197F1F70197D9F708958091E5
:100B400085008F5F80938500309387002093860017
:100B5000823050F480ED97E028EC30E0F9013197D5
:100B6000F1F70197D9F70895822F36DE08950A9795
:100B700018F410929C00089580919C008F5F8093E0
:100B80009C008230B0F080918F0090919000863070
:100B9000910579F0079769F080919B00823018F0F9
:100BA00010929B0003C08F5F80939B0080919B00FD
:100BB00013DE80ED97E028EC30E0F9013197F1F792
:100BC0000197D9F70895379A96B1982B96B9089559
:100BD00017B897B1982B97B9369A3699FECF349AB1
:100BE00088E592E00197F1F724B135B1C901089584
:100BF000CF92DF92EF92FF920F931F93CF93DF93E9
:100C00008FEF87BB60916C0021E030E0F90100902C
:100C1000680002C0EE0FFF1F0A94E2F7C9010090BE
:100C2000690002C0880F991F0A94E2F7A901062EF5
:100C300002C0440F551F0A94E2F7842B8E2B87BB0A
:100C400047B3C90100906B0002C0880F991F0A9436
:100C5000E2F78095842387BB87B300906A0002C0C7
:100C6000220F331F0A94E2F72095282327BB88B36D
:100C7000E095E823E8BB379A329A8FE990E0FFDBF2
:100C800085EA90E060916900FADB81E0C82ED12C02
:100C900008ECE02EF12C1092960010929500109224
:100CA0009400109293001092640010926300C0E0D0
:100CB000D0E0009163001091640080916A0060E0D0
:100CC00087DF800F911F90936400809363002196CB
:100CD000C034D10571F716E0969587951A95E1F71E
:100CE000909364008093630080916A0060E070DFFD
:100CF00090938E0080938D00C0E0D0E054C080912E
:100D00008D0090918E0090938C0080938B00809149
:100D10006B0060E05DDF90938A0080938900809192
:100D20006A0060E055DF90938E0080938D002091E3
:100D30009300309194004091890050918A00240FD3
:100D4000351F30939400209393004091630050919D
:100D5000640060E070E04817590710F461E070E04B
:100D600020E030E080918B0090918C00481759076B
:100D700010F421E030E0CB01821B930B9C0197FF24
:100D800003C0309521953F4F3093920020939100FE
:100D90008091950090919600820F931F90939600FA
:100DA00080939500219620916500C601022E02C015
:100DB000880F991F0A94E2F7C817D9070CF49FCF40
:100DC000809193009091940002C0959587952A9503
:100DD000E2F79093940080939300C9DE80919C0089
:100DE000823048F080918F0090919000863091057C
:100DF00011F0079729F4809195009091960038DEC4
:100E000080ED97E0F7013197F1F7019709F443CFAF
:100E1000F9CF2F923F924F925F926F927F928F9273
:100E20009F92AF92BF92CF92DF92EF92FF920F9379
:100E30001F93DF93CF93CDB7DEB719012A017DD081
:100E40003B014C016D897E898F89988DA6019501A2
:100E500074D09B01AC01C401B301B9D13B014C0179
:100E6000C801B701A201910168D09B01AC01C40186
:100E7000B301C8D0A601950161D02CD1CB01CF918F
:100E8000DF911F910F91FF90EF90DF90CF90BF9077
:100E9000AF909F908F907F906F905F904F903F901A
:100EA0002F9008958130910551F46F5F7F4FC1F508
:100EB0008FE990E09CDA85EA90E099DA0895892B31
:100EC00079F56F5F7F4F61F5E091A500E53070F433
:100ED000F0E0EE0FFF1FEE0FFF1FDF01AD58BF4F19
:100EE0001C92EF58FF4F138280E880838091A60008
:100EF0008093A500E0919F00E53070F4F0E0EE0FE4
:100F0000FF1FEE0FFF1FDF01AD58BF4F1C92EF58C0
:100F1000FF4F138280E880838091A00080939F0020
:100F2000089581E090E06FEF7FEFBCDF089580E0EF
:100F300090E06FEF7FEFB6DF08955058BB27AA27E8
:100F40000ED00BC1FCD030F001D120F031F49F3F26
:100F500011F41EF4F1C00EF4E095E7FBE7C0E92FB1
:100F60000DD180F3BA17620773078407950718F04D
:100F700071F49EF525C10EF4E0950B2EBA2FA02D2D
:100F80000B01B90190010C01CA01A0011124FF2736
:100F9000591B99F0593F50F4503E68F11A16F04031
:100FA000A22F232F342F4427585FF3CF4695379530
:100FB0002795A795F0405395C9F77EF41F16BA0BF5
:100FC000620B730B840BBAF09150A1F0FF0FBB1FA3
:100FD000661F771F881FC2F70EC0BA0F621F731FEC
:100FE000841F48F4879577956795B795F7959E3F49
:100FF00008F0B3CF9395880F08F09927EE0F9795D7
:10100000879508950CD0A9C0A1D040F098D030F0B9
:1010100021F45F3F19F08AC05111D3C08DC0AED00A
:1010200098F39923C9F35523B1F3951B550BBB27AF
:10103000AA2762177307840738F09F5F5F4F220F5C
:10104000331F441FAA1FA9F333D00E2E3AF0E0E855
:1010500030D091505040E695001CCAF729D0FE2FA1
:1010600027D0660F771F881FBB1F26173707480733
:10107000AB07B0E809F0BB0B802DBF01FF279358E9
:101080005F4F2AF09E3F510568F050C09AC05F3F05
:10109000ECF3983EDCF3869577956795B795F795D1
:1010A0009F5FC9F7880F911D9695879597F90895C9
:1010B000E1E0660F771F881FBB1F62177307840765
:1010C000BA0720F0621B730B840BBA0BEE1F88F774
:1010D000E09508955BD088F09F5790F0B92F99273D
:1010E000B751A0F0D1F0660F771F881F991F1AF033
:1010F000BA95C9F712C0B13081F062D0B1E008955D
:101100005FC0672F782F8827B85F39F0B93FCCF3DD
:10111000869577956795B395D9F73EF49095809528
:10112000709561957F4F8F4F9F4F089597F99F67F7
:1011300080E870E060E008959FEF80EC089500245F
:101140000A941616170618060906089500240A942C
:1011500012161306140605060895092E0394000CB2
:1011600011F4882352F0BB0F40F4BF2B11F460FF41
:1011700004C06F5F7F4F8F4F9F4F089557FD90586A
:10118000440F551F59F05F3F71F04795880F97FB4B
:10119000991F61F09F3F79F0879508951216130605
:1011A0001406551FF2CF4695F1DF08C01616170634
:1011B0001806991FF1CF8695710561050894089569
:1011C000E894BB2766277727CB0197F908950AD0C3
:1011D000C4CFB5DF28F0BADF18F0952309F0A6CF09
:1011E000ABCFEFCFCBDFA8F39923D9F35523C9F3C6
:1011F000950F50E0551FAA27EE27FF27BB27002495
:101200000894679520F4E20FF31FB41F0A1E220F03
:10121000331F441FAA1F6695A9F7779530F4F30F83
:10122000B41F0A1E121E08F46395330F441FAA1F31
:10123000221F769599F7879520F4B40F0A1E121E87
:10124000631F440FAA1F221F331F8695A9F7862FFD
:10125000712D602D11249F5750408AF0E1F08823B2
:101260004AF0EE0FFF1FBB1F661F771F881F9150AC
:101270005040A9F79E3F510570F058CFA2CF5F3F75
:10128000ECF3983EDCF3869577956795B795F795DF
:10129000E7959F5FC1F7FE2B880F911D9695879567
:1012A00097F908955527002480FF02C0060E571FA6
:1012B000660F771F6115710521F096958795009748
:1012C00099F7952F802D0895FF27EE27BB27AA2792
:1012D00060FF04C0A20FB31FE41FF51F220F331FCE
:1012E000441F551F969587957795679589F70097C1
:1012F000760771F7CF01BD01089597FB092E0526EA
:101300000ED057FD04D014D00AD0001C38F45095EC
:101310004095309521953F4F4F4F5F4F0895F6F719
:1013200090958095709561957F4F8F4F9F4F089551
:10133000A1E21A2EAA1BBB1BFD010DC0AA1FBB1FD9
:10134000EE1FFF1FA217B307E407F50720F0A21B4B
:10135000B30BE40BF50B661F771F881F991F1A94B8
:1013600069F760957095809590959B01AC01BD01E2
:10137000CF010895EE0FFF1F0590F491E02D099421
:1013800010E0C2E3D0E003C0FE01F6DF2296C433D2
:08139000D107D1F7F894FFCF5B
:0E13980003B45A000209001903010103040006
:00000001FF
