:1000000019C03DC03CC01CC13AC039C038C037C05F
:1000100036C035C034C033C032C031C030C0E5C393
:10002000EEC3F7C300C409C40DC416C4A8C444C5B4
:10003000C007C60711241FBECFE5D2E0DEBFCDBF8B
:1000400010E0A0E6B0E0E6EFF3E102C005900D920B
:10005000AE36B107D9F710E0AEE6B0E001C01D92B0
:10006000AA3AB107E1F710E0C2E3D0E003C022975B
:10007000FE01B1D9C033D107D1F7E9D5B0C9C0CF9E
:10008000853078F4E82FF0E0EE0FFF1FEE0FFF1F32
:10009000DF01AD58BF4F1C92EF58FF4F138280E82D
:1000A000808308958530B8F4E82FF0E0EE0FFF1F4D
:1000B000EE0FFF1FEF58FF4F8381882361F023E08D
:1000C000769567952A95E1F7605470406F3F71050A
:1000D00009F008F4608308958530B0F4E82FF0E06B
:1000E000EE0FFF1FEE0FFF1FEF58FF4F8381882396
:1000F00059F08081282F30E0285F3F4F43E0220FE6
:10010000331F4A95E1F702C020E030E0C9010895AD
:10011000853058F4E82FF0E0EE0FFF1FEE0FFF1FC1
:10012000EF58FF4F83818111618308958530A0F4DA
:10013000A82FB0E0FD01EE0FFF1FEE0FFF1FEF58DD
:10014000FF4F8381882341F0AA0FBB1FAA0FBB1F5B
:10015000AD58BF4F8C91089580E0089510BE80B7D0
:10016000877F80BF80B7846080BF80B7826080BF98
:1001700080B7816080BF0895F1DF89B7806489BF4F
:100180001FBC8FEF8EBD78940895CF93DF93853099
:1001900030F5C82FD0E0FE01EE0FFF1FEE0FFF1F5E
:1001A000EF58FF4F83818823D1F0662389F0809137
:1001B0006E00882321F4E0DF81E080936E00CC0F95
:1001C000DD1FCC0FDD1FCD58DF4F81E0888307C0D6
:1001D000CC0FDD1FCC0FDD1FCD58DF4F1882DF9114
:1001E000CF910895E1E7F0E080E8808311821282E8
:1001F0001382349690E0E538F907B9F781E08093EF
:100200006F00089580916F00882309F4EBDFA4E765
:10021000B0E0E0E0F0E09E2F8C91882349F4EE0FEF
:10022000FF1FEE0FFF1FEF58FF4F81E0838306C0D3
:1002300031961496E530F10571F79FEF892F0895F7
:100240001F920F920FB60F9211242F933F938F930B
:100250009F93EF93FF9380916000813009F451C028
:100260008130B8F1823009F49BC0833009F09EC020
:10027000809170008F5F8093700080917000853056
:1002800011F410927000E0917000F0E0EE0FFF1F8B
:10029000EE0FFF1FED58FF4F80818823A1F088B338
:1002A000E0917000F0E0EE0FFF1FEE0FFF1FEF5820
:1002B000FF4F21E030E0018002C0220F331F0A947B
:1002C000E2F7822B88BB1FBC8CE38EBD10926000CE
:1002D0006DC0E0917000F0E0EE0FFF1FEE0FFF1F0A
:1002E000EF58FF4F80818EBD81E0809360001FBC7E
:1002F0008EB5882319F48FEF8FBD58C080E188BF79
:1003000055C0E0917000F0E0EE0FFF1FEE0FFF1FF1
:10031000ED58FF4F80818823A9F028B3E091700049
:10032000F0E0EE0FFF1FEE0FFF1FEF58FF4F81E0D1
:1003300090E0018002C0880F991F0A94E2F780952F
:10034000822388BBE0917000F0E0EE0FFF1FEE0FFC
:10035000FF1FEF58FF4F808190E0803C910574F0C3
:1003600083E080936000E0917000F0E0EE0FFF1FEB
:10037000EE0FFF1FEF58FF4F80EC0DC082E080931F
:100380006000E0917000F0E0EE0FFF1FEE0FFF1F26
:10039000EF58FF4F8FEB9081891B8EBD1FBC06C0AD
:1003A00083E0809360001FBC8FEF8EBDFF91EF91C3
:1003B0009F918F913F912F910F900FBE0F901F90A3
:1003C00018950F931F938C01FC01818180838FEF1F
:1003D000818380E292E09383828380E699E0958333
:1003E000848310DFF80180831F910F9108950F938C
:1003F0001F938C01FC01818180838FEF818380E2D8
:1004000092E09383828380E699E095838483FADE89
:10041000F80180831F910F910895CF93DF93EC0132
:10042000E881E53070F4F0E0EE0FFF1FEE0FFF1FE4
:10043000DF01AD58BF4F1C92EF58FF4F138280E889
:10044000808389818883DF91CF910895CF93DF9353
:10045000EC01E881E53070F4F0E0EE0FFF1FEE0FE5
:10046000FF1FDF01AD58BF4F1C92EF58FF4F1382A3
:1004700080E8808389818883DF91CF9108951F93DD
:10048000CF93DF93EC01162F98818981981739F467
:10049000B9DE88839981891711F480E01FC0163076
:1004A000E0F427B381E090E0012E02C0880F991F8D
:1004B0000A94E2F7282B27BB8881853058F4E82F6F
:1004C000F0E0EE0FFF1FEE0FFF1FEF58FF4F83818D
:1004D00081111183888161E058DE8881DF91CF919D
:1004E0001F910895FC015383428335832483C7DF22
:1004F0000895CF93DF93EC01E881E53070F4F0E0EC
:10050000EE0FFF1FEE0FFF1FDF01AD58BF4F1C9214
:10051000EF58FF4F138280E8808389818883DF91C1
:10052000CF910895FC0190818181981711F0892F56
:10053000B9DD0895FC01908181819817B9F095305B
:10054000A8F4E92FF0E0EE0FFF1FEE0FFF1FEF58AA
:10055000FF4F8381882351F08081E82FF0E03896A7
:1005600093E0EE0FFF1F9A95E1F702C0E0E0F0E0A4
:10057000CF010895FC01908181819817B1F09530E9
:10058000A0F4A92FB0E0FD01EE0FFF1FEE0FFF1F3B
:10059000EF58FF4F8381882341F0AA0FBB1FAA0F9A
:1005A000BB1FAD58BF4F8C91089580E008954F92C6
:1005B0005F926F927F928F929F92AF92BF92CF92F3
:1005C000DF92EF92FF920F931F93DF93CF9300D0B0
:1005D00000D0CDB7DEB72A013B0109831A832B83F4
:1005E0003C836F89788D898D9A8D681979098A097C
:1005F0009B09401A510A620A730AA301920193D619
:1006000029813A814B815C81C21AD30AE40AF50A36
:10061000A7019601A1D6280D391D4A1D5B1DB90100
:10062000CA010F900F900F900F90CF91DF911F9103
:100630000F91FF90EF90DF90CF90BF90AF909F9081
:100640008F907F906F905F904F9008958F929F92C0
:10065000AF92BF92CF92DF92EF92FF920F931F93D0
:10066000CF93DF93EC0198818981981719F460E0AA
:1006700070E022C0CE015EDF00D000D0AC0160E0AF
:1006800070E00A811B8120E030E0CC80DD80EE2428
:10069000FF2484EB90E0A0E0B0E0EDB7FEB78183EB
:1006A0009283A383B483CE018824992454017FDFED
:1006B0000F900F900F900F90CB01DF91CF911F9172
:1006C0000F91FF90EF90DF90CF90BF90AF909F90F1
:1006D0008F9008958F929F92AF92BF92CF92DF92A8
:1006E000EF92FF920F931F93CF93DF93EC019881CA
:1006F0008981981761F1653B710510F0CE0126C024
:1007000000D000D0AB0160E070E08A809B80AA241A
:10071000BB248C819D81A0E0B0E0EDB7FEB7818362
:100720009283A383B483CE0100E010E020E030E0A8
:10073000E4EBCE2ED12CE12CF12C39DF0F900F9071
:100740000F900F909B01AC01CE01B901EBDEDF9160
:10075000CF911F910F91FF90EF90DF90CF90BF90BE
:10076000AF909F908F9008958CE087B980EA9FE0CA
:100770000197F1F7369A3699FECF84B165B1362FDD
:1007800020E090E0282B392B442737FD4095542F4B
:1007900064EB7BE281E190E0DFD5CA01B901089505
:1007A000309169008639910558F428B381E090E0D2
:1007B00002C0880F991F3A95E2F7282B28BB0895AD
:1007C00028B381E090E002C0880F991F3A95E2F7C4
:1007D0008095822388BB0895E82FF0E0E930F10589
:1007E00008F074C1E15FFF4F09948EE990E06CED71
:1007F00075E098DE84EA90E06CED75E05BC18EE90F
:1008000090E060EB74E08EDE84EA90E068E077E0F0
:1008100051C18EE990E068E077E084DE84EA90E000
:1008200060EB74E047C18EE990E060E679E07ADE43
:1008300084EA90E068E572E03DC18EE990E068E509
:1008400072E004C08EE990E060E679E06BDE84EA55
:1008500090E060E679E02EC18091620090E06AE06D
:1008600070E04FD5BC01685A7D4F8EE990E05ADEAA
:100870008091610090E06AE070E043D5BC01685A65
:100880007D4F84EA90E04EDE80ED97E028EC30E08A
:10089000F9013197F1F70197D9F78091620090E063
:1008A0006AE070E02ED5BC01685A7D4F8EE990E079
:1008B00039DE8091620090E06AE070E022D5BC01F0
:1008C000685A7D4F84EA90E02DDE80ED97E028ECB9
:1008D00030E0F9013197F1F70197D9F78091610084
:1008E00090E06AE070E00DD5BC01685A7D4F8EE95A
:1008F00090E018DE8091620090E06AE070E001D53F
:10090000BC01685A7D4F84EA90E00CDE80ED97E0F0
:1009100028EC30E0F9013197F1F70197D9F7809190
:10092000610090E06AE070E0ECD4BC01685A7D4F51
:100930008EE990E0F7DD8091610090E06AE070E080
:10094000E0D4BC01685A7D4F84EA90E0EBDD80ED95
:1009500097E028EC30E0F9013197F1F70197D9F7EA
:100960008091620090E06AE070E0CBD4BC01685AEC
:100970007D4F8EE990E0D6DD8091610092C080913C
:10098000620090E06AE070E0BCD4BC01685A7D4F20
:100990008EE990E0C7DD8091630090E06AE070E04E
:1009A000B0D4BC01685A7D4F84EA90E0BBDD80ED95
:1009B00097E028EC30E0F9013197F1F70197D9F78A
:1009C0008091630090E06AE070E09BD4BC01685ABB
:1009D0007D4F8EE990E0A6DD8091620090E06AE0B4
:1009E00070E08FD4BC01685A7D4F84EA90E09ADDB4
:1009F00080ED97E028EC30E0F9013197F1F70197AD
:100A0000D9F78091610090E06AE070E07AD4BC018F
:100A1000685A7D4F8EE990E085DD8091630090E01B
:100A20006AE070E06ED4BC01685A7D4F84EA90E0C1
:100A300079DD80ED97E028EC30E0F9013197F1F7AE
:100A40000197D9F78091630090E06AE070E059D493
:100A5000BC01685A7D4F8EE990E064DD80916100B1
:100A600090E06AE070E04DD4BC01685A7D4F84EAA2
:100A700090E058DD80ED97E028EC30E0F901319707
:100A8000F1F70197D9F78091620090E06AE070E099
:100A900038D4BC01685A7D4F8EE990E043DD8091E7
:100AA000630090E06AE070E02CD4BC01685A7D4F8E
:100AB00084EA90E037DD08958EE990E060E679E021
:100AC00031DD84EA90E068E572E02CDD0895FC01F8
:100AD00080916800282F30E0E217F30730F0C90159
:100AE000880F991FE817F90728F410928F001092C9
:100AF0008E0039C0C90163E070E003D4E817F9073C
:100B000018F482E090E02BC0C901880F991F880F6C
:100B1000991FE817F90718F483E090E020C0C90195
:100B200065E070E0EED3E817F90718F484E090E090
:100B300016C0C90166E070E0E4D3E817F90718F4BD
:100B400085E090E00CC0C90167E070E0DAD3E817F7
:100B5000F90718F486E090E002C087E090E09093F7
:100B60008F0080938E0020918E0030918F008091B5
:100B70008600909187002817390781F0309387000D
:100B8000209386001092850080ED97E028EC30E0FD
:100B9000F9013197F1F70197D9F708958091850010
:100BA0008F5F80938500309387002093860082308A
:100BB00050F480ED97E028EC30E0F9013197F1F73F
:100BC0000197D9F70895822F07DE08950A9718F440
:100BD00010929B00089580919B008F5F80939B00F3
:100BE0008230F8F080918E0090918F0086309105D0
:100BF000C1F00797B1F080919A00823018F01092FE
:100C00009A0003C08F5F80939A0080919A00E4DD80
:100C100080ED97E028EC30E0F9013197F1F701978A
:100C2000D9F70895379A96B1982B96B9089517B8C1
:100C300097B1982B97B9369A3699FECF349A80E9B6
:100C400091E00197F1F724B135B1C9010895CF9230
:100C5000DF92EF92FF920F931F93CF93DF938FEF6B
:100C600087BB60916D0021E030E0F90100906900E0
:100C700002C0EE0FFF1F0A94E2F7C90100906A005C
:100C800002C0880F991F0A94E2F7A901062E02C03C
:100C9000440F551F0A94E2F7842B8E2B87BB47B372
:100CA000C90100906C0002C0880F991F0A94E2F7F6
:100CB0008095842387BB87B300906B0002C0220F0E
:100CC000331F0A94E2F72095282327BB88B3E095C9
:100CD000E823E8BB379A329A8EE990E0D0DB84EAC9
:100CE00090E060916A00CBDB81E0C82ED12C08EC4B
:100CF000E02EF12C10929500109294001092930027
:100D0000109292001092650010926400C0E0D0E052
:100D1000009164001091650080916B0060E087DFB6
:100D2000800F911F90936500809364002196C034DA
:100D3000D10571F716E0969587951A95E1F790938E
:100D400065008093640080916B0060E070DF909399
:100D50008D0080938C00C0E0D0E054C080918C0066
:100D600090918D0090938B0080938A0080916C000D
:100D700060E05DDF909389008093880080916B0034
:100D800060E055DF90938D0080938C00209192005D
:100D9000309193004091880050918900240F351FB5
:100DA000309393002093920040916400509165002D
:100DB00060E070E04817590710F461E070E020E04F
:100DC00030E080918A0090918B004817590710F409
:100DD00021E030E0CB01821B930B9C0197FF03C005
:100DE000309521953F4F3093910020939000809152
:100DF000940090919500820F931F9093950080939B
:100E00009400219620916600C601022E02C0880F30
:100E1000991F0A94E2F7C817D9070CF49FCF809165
:100E200092009091930002C0959587952A95E2F7DC
:100E30009093930080939200C9DE80919B00823052
:100E400048F080918E0090918F008630910511F0CE
:100E5000079729F4809194009091950038DE80EDF9
:100E600097E0F7013197F1F7019709F443CFF9CFF4
:100E70002F923F924F925F926F927F928F929F92AA
:100E8000AF92BF92CF92DF92EF92FF920F931F9398
:100E9000DF93CF93CDB7DEB719012A017DD03B0197
:100EA0004C016D897E898F89988DA601950174D03A
:100EB0009B01AC01C401B301B9D13B014C01C80194
:100EC000B701A201910168D09B01AC01C401B3013B
:100ED000C8D0A601950161D02CD1CB01CF91DF9173
:100EE0001F910F91FF90EF90DF90CF90BF90AF9048
:100EF0009F908F907F906F905F904F903F902F903A
:100F000008958130910551F46F5F7F4FC1F58EE9EF
:100F100090E06DDA84EA90E06ADA0895892B79F539
:100F20006F5F7F4F61F5E091A400E53070F4F0E071
:100F3000EE0FFF1FEE0FFF1FDF01AD58BF4F1C92DA
:100F4000EF58FF4F138280E880838091A500809343
:100F5000A400E0919E00E53070F4F0E0EE0FFF1F7A
:100F6000EE0FFF1FDF01AD58BF4F1C92EF58FF4F30
:100F7000138280E8808380919F0080939E00089573
:100F800081E090E06FEF7FEFBCDF089580E090E0BC
:100F90006FEF7FEFB6DF08955058BB27AA270ED01A
:100FA0000BC1FCD030F001D120F031F49F3F11F49F
:100FB0001EF4F1C00EF4E095E7FBE7C0E92F0DD178
:100FC00080F3BA17620773078407950718F071F466
:100FD0009EF525C10EF4E0950B2EBA2FA02D0B0126
:100FE000B90190010C01CA01A0011124FF27591B6E
:100FF00099F0593F50F4503E68F11A16F040A22F74
:10100000232F342F4427585FF3CF469537952795E4
:10101000A795F0405395C9F77EF41F16BA0B620BE3
:10102000730B840BBAF09150A1F0FF0FBB1F661F2A
:10103000771F881FC2F70EC0BA0F621F731F841F6D
:1010400048F4879577956795B795F7959E3F08F093
:10105000B3CF9395880F08F09927EE0F9795879552
:1010600008950CD0A9C0A1D040F098D030F021F460
:101070005F3F19F08AC05111D3C08DC0AED098F334
:101080009923C9F35523B1F3951B550BBB27AA2709
:1010900062177307840738F09F5F5F4F220F331F7B
:1010A000441FAA1FA9F333D00E2E3AF0E0E830D047
:1010B00091505040E695001CCAF729D0FE2F27D04A
:1010C000660F771F881FBB1F261737074807AB0718
:1010D000B0E809F0BB0B802DBF01FF2793585F4F8D
:1010E0002AF09E3F510568F050C09AC05F3FECF374
:1010F000983EDCF3869577956795B795F7959F5F52
:10110000C9F7880F911D9695879597F90895E1E0A5
:10111000660F771F881FBB1F621773078407BA0704
:1011200020F0621B730B840BBA0BEE1F88F7E0955F
:1011300008955BD088F09F5790F0B92F9927B75149
:10114000A0F0D1F0660F771F881F991F1AF0BA958B
:10115000C9F712C0B13081F062D0B1E008955FC02C
:10116000672F782F8827B85F39F0B93FCCF3869581
:1011700077956795B395D9F73EF4909580957095DE
:1011800061957F4F8F4F9F4F089597F99F6780E834
:1011900070E060E008959FEF80EC089500240A94C9
:1011A0001616170618060906089500240A94121642
:1011B0001306140605060895092E0394000C11F475
:1011C000882352F0BB0F40F4BF2B11F460FF04C022
:1011D0006F5F7F4F8F4F9F4F089557FD9058440F7B
:1011E000551F59F05F3F71F04795880F97FB991F86
:1011F00061F09F3F79F08795089512161306140643
:10120000551FF2CF4695F1DF08C0161617061806CF
:10121000991FF1CF86957105610508940895E894AA
:10122000BB2766277727CB0197F908950AD0C4CF4B
:10123000B5DF28F0BADF18F0952309F0A6CFABCFC1
:10124000EFCFCBDFA8F39923D9F35523C9F3950F3B
:1012500050E0551FAA27EE27FF27BB27002408943C
:10126000679520F4E20FF31FB41F0A1E220F331FED
:10127000441FAA1F6695A9F7779530F4F30FB41FA2
:101280000A1E121E08F46395330F441FAA1F221F63
:10129000769599F7879520F4B40F0A1E121E631FE6
:1012A000440FAA1F221F331F8695A9F7862F712D81
:1012B000602D11249F5750408AF0E1F088234AF0B6
:1012C000EE0FFF1FBB1F661F771F881F91505040F6
:1012D000A9F79E3F510570F058CFA2CF5F3FECF3C6
:1012E000983EDCF3869577956795B795F795E795E2
:1012F0009F5FC1F7FE2B880F911D9695879597F9F3
:1013000008955527002480FF02C0060E571F660F60
:10131000771F6115710521F096958795009799F7CC
:10132000952F802D0895FF27EE27BB27AA2760FF62
:1013300004C0A20FB31FE41FF51F220F331F441F69
:10134000551F969587957795679589F70097760746
:1013500071F7CF01BD01089597FB092E05260ED028
:1013600057FD04D014D00AD0001C38F45095409595
:10137000309521953F4F4F4F5F4F0895F6F7909569
:101380008095709561957F4F8F4F9F4F0895A1E293
:101390001A2EAA1BBB1BFD010DC0AA1FBB1FEE1FEF
:1013A000FF1FA217B307E407F50720F0A21BB30B3A
:1013B000E40BF50B661F771F881F991F1A9469F7B6
:1013C00060957095809590959B01AC01BD01CF0112
:1013D0000895EE0FFF1F0590F491E02D099410E0A1
:1013E000C2E3D0E003C0FE01F6DF2296C433D1078A
:0613F000D1F7F894FFCFD5
:0E13F6000332825A00020900190301010304A8
:00000001FF
